:1080000031400072B0120C80B012A080B240805A91
:1080100020010E43B2400002E201B240F002E4014E
:10802000B2402000E601B2400003EA01B240F00392
:10803000EC01B2402000EE01B2400005DA01B2408E
:10804000F005DC01B2402000DE01B240D003E001C7
:10805000B240D003E801B240D003D801A2432401CA
:108060000D3CCE4E00051E533E906000FA2B92D37D
:10807000E00192D3E801B240D103D8010E43033CA2
:10808000CE4E00021E533E906000FA2B0E43033C7E
:10809000CE4E00031E533E906000FA2B0E43E43F89
:0A80A0003040A4803040A880FF3F6C
:02FFFE00008081
:008000017F
:00000001FF
