:1080000031400072B0120C80B0127A80B240805AB7
:1080100020010E43B2400002E201B2400003E4013D
:10802000B2402000E601B2400004EA01B24000057F
:10803000EC01B2402000EE01B2400006F201B24075
:108040000007F401B2402000F601A2432401B2402F
:10805000100FE001B240100FE801B240100FF00124
:108060000A3CCE4E00021E533E902000FA2B92D3C3
:10807000F00192D3E8010E43F73F30407E8030405C
:048080008280FF3FBC
:02FFFE00008081
:008000017F
:00000001FF
